{
    "contractName": "Patient",
    "abi": [
        {
            "inputs": [],
            "stateMutability": "nonpayable",
            "type": "constructor"
        },
        {
            "inputs": [
                {
                    "internalType": "uint112",
                    "name": "_dateStart",
                    "type": "uint112"
                },
                {
                    "internalType": "uint112",
                    "name": "_dateEnd",
                    "type": "uint112"
                },
                {
                    "internalType": "string",
                    "name": "_department",
                    "type": "string"
                },
                {
                    "internalType": "string[]",
                    "name": "_treatmentTopics",
                    "type": "string[]"
                },
                {
                    "internalType": "string[]",
                    "name": "_treatmentDescription",
                    "type": "string[]"
                },
                {
                    "internalType": "string[]",
                    "name": "_resultTopics",
                    "type": "string[]"
                },
                {
                    "internalType": "string[]",
                    "name": "_resultDescription",
                    "type": "string[]"
                },
                {
                    "internalType": "string[]",
                    "name": "_doctor",
                    "type": "string[]"
                },
                {
                    "internalType": "string[]",
                    "name": "_doctorResponsibility",
                    "type": "string[]"
                }
            ],
            "name": "addRecord",
            "outputs": [
                {
                    "internalType": "bool",
                    "name": "",
                    "type": "bool"
                }
            ],
            "stateMutability": "nonpayable",
            "type": "function"
        },
        {
            "inputs": [
                {
                    "internalType": "address",
                    "name": "target",
                    "type": "address"
                },
                {
                    "internalType": "uint256",
                    "name": "recordIndex",
                    "type": "uint256"
                }
            ],
            "name": "allowance",
            "outputs": [
                {
                    "internalType": "bool",
                    "name": "result",
                    "type": "bool"
                }
            ],
            "stateMutability": "view",
            "type": "function"
        },
        {
            "inputs": [
                {
                    "internalType": "address",
                    "name": "target",
                    "type": "address"
                },
                {
                    "internalType": "uint256",
                    "name": "recordIndex",
                    "type": "uint256"
                }
            ],
            "name": "approve",
            "outputs": [
                {
                    "internalType": "bool",
                    "name": "",
                    "type": "bool"
                }
            ],
            "stateMutability": "nonpayable",
            "type": "function"
        },
        {
            "inputs": [
                {
                    "internalType": "uint256",
                    "name": "_index",
                    "type": "uint256"
                }
            ],
            "name": "getExactRecord",
            "outputs": [
                {
                    "internalType": "uint112",
                    "name": "_dateStart",
                    "type": "uint112"
                },
                {
                    "internalType": "uint112",
                    "name": "_dateEnd",
                    "type": "uint112"
                },
                {
                    "internalType": "string",
                    "name": "_department",
                    "type": "string"
                },
                {
                    "internalType": "string[]",
                    "name": "_treatmentTopics",
                    "type": "string[]"
                },
                {
                    "internalType": "string[]",
                    "name": "_treatmentDescription",
                    "type": "string[]"
                },
                {
                    "internalType": "string[]",
                    "name": "_resultTopics",
                    "type": "string[]"
                },
                {
                    "internalType": "string[]",
                    "name": "_resultDescription",
                    "type": "string[]"
                },
                {
                    "internalType": "string[]",
                    "name": "_doctor",
                    "type": "string[]"
                },
                {
                    "internalType": "string[]",
                    "name": "_doctorResponsibility",
                    "type": "string[]"
                }
            ],
            "stateMutability": "view",
            "type": "function"
        },
        {
            "inputs": [],
            "name": "getRecords",
            "outputs": [
                {
                    "internalType": "uint256",
                    "name": "_recordCount",
                    "type": "uint256"
                }
            ],
            "stateMutability": "view",
            "type": "function"
        },
        {
            "inputs": [],
            "name": "hospital",
            "outputs": [
                {
                    "internalType": "address",
                    "name": "",
                    "type": "address"
                }
            ],
            "stateMutability": "view",
            "type": "function"
        },
        {
            "inputs": [
                {
                    "internalType": "address",
                    "name": "_owner",
                    "type": "address"
                }
            ],
            "name": "initialize",
            "outputs": [
                {
                    "internalType": "bool",
                    "name": "",
                    "type": "bool"
                }
            ],
            "stateMutability": "nonpayable",
            "type": "function"
        },
        {
            "inputs": [],
            "name": "owner",
            "outputs": [
                {
                    "internalType": "address",
                    "name": "",
                    "type": "address"
                }
            ],
            "stateMutability": "view",
            "type": "function"
        },
        {
            "inputs": [
                {
                    "internalType": "address",
                    "name": "target",
                    "type": "address"
                },
                {
                    "internalType": "uint256",
                    "name": "recordIndex",
                    "type": "uint256"
                }
            ],
            "name": "unapprove",
            "outputs": [
                {
                    "internalType": "bool",
                    "name": "",
                    "type": "bool"
                }
            ],
            "stateMutability": "nonpayable",
            "type": "function"
        }
    ],
    "bytecode": "6080604052600060045534801561001557600080fd5b50600080546001600160a01b03191633179055611249806100376000396000f3fe608060405234801561001057600080fd5b50600436106100935760003560e01c80639c059584116100665780639c0595841461010f578063aa2fedde14610122578063c4d66de814610135578063ddc6a17114610148578063e9b9e46b1461018057600080fd5b8063095ea7b3146100985780636f8e2759146100c05780638da5cb5b146100d35780638eff3c29146100fe575b600080fd5b6100ab6100a6366004610cfe565b6101a8565b60405190151581526020015b60405180910390f35b6100ab6100ce366004610cfe565b610214565b6001546100e6906001600160a01b031681565b6040516001600160a01b0390911681526020016100b7565b6004546040519081526020016100b7565b6100ab61011d366004610e95565b610273565b6000546100e6906001600160a01b031681565b6100ab610143366004610fd2565b6104f0565b6100ab610156366004610cfe565b6001600160a01b039091166000908152600260209081526040808320938352929052205460ff1690565b61019361018e366004610ff4565b61053d565b6040516100b7999897969594939291906110af565b6001546000906001600160a01b031633146101de5760405162461bcd60e51b81526004016101d590611165565b60405180910390fd5b506001600160a01b0391909116600090815260026020908152604080832093835292905220805460ff1916600190811790915590565b6001546000906001600160a01b031633146102415760405162461bcd60e51b81526004016101d590611165565b506001600160a01b0391909116600090815260026020908152604080832093835292905220805460ff19169055600190565b600080546001600160a01b031633146102da5760405162461bcd60e51b815260206004820152602360248201527f4d656470726f6a656374733a204144445f5245434f5244206e6f7420616c6c6f6044820152621dd95960ea1b60648201526084016101d5565b61033b60405180610120016040528060006001600160701b0316815260200160006001600160701b03168152602001606081526020016060815260200160608152602001606081526020016060815260200160608152602001606081525090565b6001600160701b03808c1682528a81166020808401918252604084018c8152606085018c9052608085018b905260a085018a905260c0850189905260e08501889052610100850187905260038054600181018255600091909152855160089091027fc2575a0e9e593c00f959f8c92f12db2869c3395a3b0502d05e2516446f71f85b8101805495518716600160701b026001600160e01b0319909616929096169190911793909317845551805185949361041b937fc2575a0e9e593c00f959f8c92f12db2869c3395a3b0502d05e2516446f71f85c909101920190610b9b565b5060608201518051610437916002840191602090910190610c1f565b5060808201518051610453916003840191602090910190610c1f565b5060a0820151805161046f916004840191602090910190610c1f565b5060c0820151805161048b916005840191602090910190610c1f565b5060e082015180516104a7916006840191602090910190610c1f565b5061010082015180516104c4916007840191602090910190610c1f565b5050506001600460008282546104da919061119c565b9091555060019c9b505050505050505050505050565b600080546001600160a01b0316331461051b5760405162461bcd60e51b81526004016101d590611165565b50600180546001600160a01b0319166001600160a01b0383161781555b919050565b6000806060806060806060806060600060038b81548110610560576105606111c2565b60009182526020918290206040805161012081018252600890930290910180546001600160701b038082168552600160701b9091041693830193909352600183018054929392918401916105b3906111d8565b80601f01602080910402602001604051908101604052809291908181526020018280546105df906111d8565b801561062c5780601f106106015761010080835404028352916020019161062c565b820191906000526020600020905b81548152906001019060200180831161060f57829003601f168201915b5050505050815260200160028201805480602002602001604051908101604052809291908181526020016000905b82821015610706578382906000526020600020018054610679906111d8565b80601f01602080910402602001604051908101604052809291908181526020018280546106a5906111d8565b80156106f25780601f106106c7576101008083540402835291602001916106f2565b820191906000526020600020905b8154815290600101906020018083116106d557829003601f168201915b50505050508152602001906001019061065a565b50505050815260200160038201805480602002602001604051908101604052809291908181526020016000905b828210156107df578382906000526020600020018054610752906111d8565b80601f016020809104026020016040519081016040528092919081815260200182805461077e906111d8565b80156107cb5780601f106107a0576101008083540402835291602001916107cb565b820191906000526020600020905b8154815290600101906020018083116107ae57829003601f168201915b505050505081526020019060010190610733565b50505050815260200160048201805480602002602001604051908101604052809291908181526020016000905b828210156108b857838290600052602060002001805461082b906111d8565b80601f0160208091040260200160405190810160405280929190818152602001828054610857906111d8565b80156108a45780601f10610879576101008083540402835291602001916108a4565b820191906000526020600020905b81548152906001019060200180831161088757829003601f168201915b50505050508152602001906001019061080c565b50505050815260200160058201805480602002602001604051908101604052809291908181526020016000905b82821015610991578382906000526020600020018054610904906111d8565b80601f0160208091040260200160405190810160405280929190818152602001828054610930906111d8565b801561097d5780601f106109525761010080835404028352916020019161097d565b820191906000526020600020905b81548152906001019060200180831161096057829003601f168201915b5050505050815260200190600101906108e5565b50505050815260200160068201805480602002602001604051908101604052809291908181526020016000905b82821015610a6a5783829060005260206000200180546109dd906111d8565b80601f0160208091040260200160405190810160405280929190818152602001828054610a09906111d8565b8015610a565780601f10610a2b57610100808354040283529160200191610a56565b820191906000526020600020905b815481529060010190602001808311610a3957829003601f168201915b5050505050815260200190600101906109be565b50505050815260200160078201805480602002602001604051908101604052809291908181526020016000905b82821015610b43578382906000526020600020018054610ab6906111d8565b80601f0160208091040260200160405190810160405280929190818152602001828054610ae2906111d8565b8015610b2f5780601f10610b0457610100808354040283529160200191610b2f565b820191906000526020600020905b815481529060010190602001808311610b1257829003601f168201915b505050505081526020019060010190610a97565b5050505081525050905080600001519950806020015198508060400151975080606001519650806080015195508060a0015194508060c0015193508060e0015192508061010001519150509193959799909294969850565b828054610ba7906111d8565b90600052602060002090601f016020900481019282610bc95760008555610c0f565b82601f10610be257805160ff1916838001178555610c0f565b82800160010185558215610c0f579182015b82811115610c0f578251825591602001919060010190610bf4565b50610c1b929150610c78565b5090565b828054828255906000526020600020908101928215610c6c579160200282015b82811115610c6c5782518051610c5c918491602090910190610b9b565b5091602001919060010190610c3f565b50610c1b929150610c8d565b5b80821115610c1b5760008155600101610c79565b80821115610c1b576000610ca18282610caa565b50600101610c8d565b508054610cb6906111d8565b6000825580601f10610cc6575050565b601f016020900490600052602060002090810190610ce49190610c78565b50565b80356001600160a01b038116811461053857600080fd5b60008060408385031215610d1157600080fd5b610d1a83610ce7565b946020939093013593505050565b80356001600160701b038116811461053857600080fd5b634e487b7160e01b600052604160045260246000fd5b604051601f8201601f1916810167ffffffffffffffff81118282101715610d7e57610d7e610d3f565b604052919050565b600082601f830112610d9757600080fd5b813567ffffffffffffffff811115610db157610db1610d3f565b610dc4601f8201601f1916602001610d55565b818152846020838601011115610dd957600080fd5b816020850160208301376000918101602001919091529392505050565b600082601f830112610e0757600080fd5b8135602067ffffffffffffffff80831115610e2457610e24610d3f565b8260051b610e33838201610d55565b9384528581018301938381019088861115610e4d57600080fd5b84880192505b85831015610e8957823584811115610e6b5760008081fd5b610e798a87838c0101610d86565b8352509184019190840190610e53565b98975050505050505050565b60008060008060008060008060006101208a8c031215610eb457600080fd5b610ebd8a610d28565b9850610ecb60208b01610d28565b975060408a013567ffffffffffffffff80821115610ee857600080fd5b610ef48d838e01610d86565b985060608c0135915080821115610f0a57600080fd5b610f168d838e01610df6565b975060808c0135915080821115610f2c57600080fd5b610f388d838e01610df6565b965060a08c0135915080821115610f4e57600080fd5b610f5a8d838e01610df6565b955060c08c0135915080821115610f7057600080fd5b610f7c8d838e01610df6565b945060e08c0135915080821115610f9257600080fd5b610f9e8d838e01610df6565b93506101008c0135915080821115610fb557600080fd5b50610fc28c828d01610df6565b9150509295985092959850929598565b600060208284031215610fe457600080fd5b610fed82610ce7565b9392505050565b60006020828403121561100657600080fd5b5035919050565b6000815180845260005b8181101561103357602081850181015186830182015201611017565b81811115611045576000602083870101525b50601f01601f19169290920160200192915050565b600081518084526020808501808196508360051b8101915082860160005b858110156110a257828403895261109084835161100d565b98850198935090840190600101611078565b5091979650505050505050565b60006101206001600160701b03808d168452808c166020850152508060408401526110dc8184018b61100d565b905082810360608401526110f0818a61105a565b90508281036080840152611104818961105a565b905082810360a0840152611118818861105a565b905082810360c084015261112c818761105a565b905082810360e0840152611140818661105a565b9050828103610100840152611155818561105a565b9c9b505050505050505050505050565b6020808252601e908201527f4d656470726f6a656374733a205045524d495353494f4e5f44454e4945440000604082015260600190565b600082198211156111bd57634e487b7160e01b600052601160045260246000fd5b500190565b634e487b7160e01b600052603260045260246000fd5b600181811c908216806111ec57607f821691505b6020821081141561120d57634e487b7160e01b600052602260045260246000fd5b5091905056fea26469706673582212201411213f4c006f61658a4ecf136a55b735458f5aa87e5f674148022a4c5d20f964736f6c63430008090033",
    "sourcePath": "d:/Nutchanon/code/medprojects/contracts/Patient.sol",
    "compiler": {
        "name": "solc",
        "version": "0.8.9+commit.e5eed63a"
    },
    "functionHashes": {
        "addRecord(uint112,uint112,string,string[],string[],string[],string[],string[],string[])": "9c059584",
        "allowance(address,uint256)": "ddc6a171",
        "approve(address,uint256)": "095ea7b3",
        "getExactRecord(uint256)": "e9b9e46b",
        "getRecords()": "8eff3c29",
        "hospital()": "aa2fedde",
        "initialize(address)": "c4d66de8",
        "owner()": "8da5cb5b",
        "unapprove(address,uint256)": "6f8e2759"
    },
    "gasEstimates": {
        "creation": {
            "codeDepositCost": "936200",
            "executionCost": "30216",
            "totalCost": "966416"
        },
        "external": {
            "addRecord(uint112,uint112,string,string[],string[],string[],string[],string[],string[])": "infinite",
            "allowance(address,uint256)": "2700",
            "approve(address,uint256)": "26922",
            "getExactRecord(uint256)": "infinite",
            "getRecords()": "2347",
            "hospital()": "2359",
            "initialize(address)": "infinite",
            "owner()": "2382",
            "unapprove(address,uint256)": "26932"
        }
    }
}